:020000040800F2
:10000000F808002001010008A10E00089D03000867
:100010009D0E000821030008CD1400080000000018
:100020000000000000000000000000002512000891
:100030009903000800000000B11000088D120008AC
:100040001B0100081B0100081B0100081B01000820
:100050001B0100081B0100081B0100081B01000810
:100060001B0100081B0100081B01000825030008F4
:100070001B010008450300081B0100081B010008C4
:100080001B0100081B0100081B0100081B010008E0
:100090001B0100081B0100081B0100081B010008D0
:1000A0001B0100081B0100081B0100081B010008C0
:1000B0001B0100081B010008ED1300081B010008CC
:1000C0001B0100081B0100081B0100081B010008A0
:1000D0001B0100081B0100081B0100081B01000890
:1000E0001B0100081B0100081B010008DFF80CD0F1
:1000F00000F02AF8004800474D160008F8080020D4
:100100000648804706480047FEE7FEE7FEE7FEE7B1
:10011000FEE7FEE7FEE7FEE7FEE7FEE795130008D1
:10012000ED000008D2B201E000F8012B491EFBD21D
:1001300070470022F6E710B513460A4604461946F2
:10014000FFF7F0FF204610BD064C074D06E0E068C3
:1001500040F0010394E8070098471034AC42F6D30E
:10016000FFF7C8FFAC180008CC1800082DE9F041D3
:100170006848006868490968884253D2674800683F
:10018000FF2844DC0020FF2190FBF1F0C4B263485B
:100190000068C0EBC000000190FBF1F0C5B25F4801
:1001A0000068C0EB002090FBF1F0C6B2594800880F
:1001B000103083B222462946304601F0B1FA0020C1
:1001C000FF2190FBF1F0C4B254480068C0EBC000BE
:1001D000000190FBF1F0C5B250480068C0EB002070
:1001E00090FBF1F0C6B24C4800884A490988401A91
:1001F000401E83B222462946304601F091FA00F0B3
:1002000059FF46480068401D4449086080E0414865
:100210000068401C3F49086000204049086000F029
:10022000DBFB75E03B4800683B490968884214D114
:100230003A480068FF2805DC38480068401C374908
:10024000086065E0FF203549086032480068401CBE
:100250003049086000F0C0FB5AE02E4801682E4883
:100260000068401C814253D12C480068002848DBBC
:1002700000243AE00020FF2190FBF1F0C5B22748AE
:100280000068C0EBC000000190FBF1F0C6B223484B
:100290000068C0EB002090FBF1F0C7B204F1100041
:1002A00083B22A463146384601F03AFA0020FF214F
:1002B00090FBF1F0C5B219480068C0EBC000000126
:1002C00090FBF1F0C6B215480068C0EB002090FB2F
:1002D000F1F0C7B210480088001B401E83B22A46C6
:1002E0003146384601F01CFA641C0B480068844211
:1002F000C0D300F0DFFE09480068401F07490860CE
:1003000006E00020034908600449086000F064FB2F
:10031000BDE8F081080000200C000020040000204F
:1003200000BFFEE700BF06480068C0F3400028B1E8
:1003300000BF02200249486000BF00BF70470000B4
:100340000000024010B500BF10480068C0F3402014
:10035000D0B100BF4FF400700C49486000BF0846A0
:1003600003214A1E0A4B9A5C825822F001034A1E5E
:10037000074CA25C835000BF80140649096A814380
:10038000044A116200BF00BF10BD0000000002401F
:1003900080180008000400407047704700BFFEE767
:1003A0002DE9F04104460D4600260D4800F034F8D2
:1003B00007460C4800F030F807436FB9286830B1A1
:1003C000606820F4702029680843606005E0606878
:1003D00020F47020606000E001263046BDE8F08126
:1003E000002401400028014070B504460D46002657
:1003F000204600F011F860B9606820F480706968E8
:1004000008436060A06820F4006029680843A06089
:1004100000E00126304670BD0146886800F001000A
:100420007047000070B505460C460026606800B1B4
:1004300000BF2846FFF7F0FF10BB606840B1D4E969
:1004400001010843696821F468410843686005E0D8
:10045000686820F46840616808436860E168206863
:10046000084321690843A968074A11400843A86066
:100470006068E96A21F470010143E96200BF00E0AD
:100480000126304670BD0000FDFEF1FF70B501F49D
:1004900040744FF4407595FAA5F5B5FA85F5EC4032
:1004A00000F12C0505EB84031C6801F01F061F25D5
:1004B000B540AC4302F01F0501F01F06B5402C43C8
:1004C0001C6070BD70B501F000744FF0007595FAB6
:1004D000A5F5B5FA85F5EC4000F10C0505EB8403B4
:1004E0001C6801F0F8754FF0F87696FAA6F6B6FAA1
:1004F00086F6F5400726AE40B44301F0F8754FF09C
:10050000F87696FAA6F6B6FA86F6F54002FA05F5FA
:100510002C431C6070BD000008B50549C969014342
:10052000034AD1611146C9690140009100BF08BD6D
:100530000010024008B5054989690143034A9161E9
:10054000114689690140009100BF08BD00100240BA
:1005500010B54A1E044B9A5C825842F001034A1EB1
:10056000014CA25C835010BD2C18000830B54B1E06
:10057000054CE35CC35823F4405313434C1E024D17
:100580002C5D035130BD00005618000830B54B1EDD
:10059000064CE35C03445B686FF30F0313434C1E8C
:1005A000024D2C5D0444636030BD00002C1800082F
:1005B00030B54B1E054CE35CC35844F21004A34312
:1005C00013434C1E014D2C5D035130BD56180008DD
:1005D00030B54B1E054CE35CC35823F08003134336
:1005E0004C1E024D2C5D035130BD00005618000812
:1005F00030B54B1E054CE35CC35823F440631343F2
:100600004C1E024D2C5D035130BD000056180008F1
:1006100030B54B1E054CE35CC35823F02003134355
:100620004C1E024D2C5D035130BD000056180008D1
:1006300030B54B1E054CE35CC35823F04003134315
:100640004C1E024D2C5D035130BD000056180008B1
:1006500030B54B1E054CE35CC35823F44073134381
:100660004C1E024D2C5D035130BD00005618000891
:100670002DE9F04102460B461868C0F30F2595FAA4
:10068000A5F0B0FA80F47CE00120A04028400028CA
:1006900076D0082C04D240F2011000FA04F106E0F2
:1006A000A4F108004FF00116864046F080615868BA
:1006B00002EB116691FAA1FCBCFA8CFC4FEA8C08A3
:1006C0004FF00F0C0CFA08FC376827EA0C0791FA78
:1006D000A1FCBCFA8CFC4FEA8C0C00FA0CFC47EA3B
:1006E0000C07376000BF1869D66826EA11260F0A82
:1006F00097FAA7F7B7FA87F700FA07F73E43D660ED
:1007000000BF5868012802D05868092838D1986875
:1007100002EB116691FAA1FCBCFA8CFC4FEA8C0842
:100720004FF0030C0CFA08FC376827EA0C0791FA23
:10073000A1FCBCFA8CFC4FEA8C0C00FA0CFC47EADA
:100740000C07376000BFD86802EB116691FAA1FC74
:10075000BCFA8CFC4FEA8C084FF0040C0CFA08FC35
:10076000376827EA0C0791FAA1FCBCFA8CFC4FEA27
:100770008C0C00FA0CFC47EA0C07376000BF00BF86
:10078000641C25FA04F000287FF47EAFBDE8F081F8
:1007900002469068C1F30F231840C1F30F2398421B
:1007A00001D1012070470020FCE74FF47A71B0FBC3
:1007B000F1F2521E4FF0E0235A6100229A610522A5
:1007C0001A6100BF704700000149086070470000CF
:1007D00014000020026A0A4302627047016821F097
:1007E000800101607047816821F08001816070475D
:1007F00010B5024613681C48824208D0B2F1804FFF
:1008000005D01A48824202D01948824204D123F00E
:1008100070004C6840EA04031348824208D0B2F1E9
:10082000804F05D01148824202D01148824204D143
:1008300023F44070CC6840EA040313608868D062F7
:1008400000BF0888906200BF0748824203D1087C3D
:10085000106300BF00BF00BF506940F0010050614D
:1008600000BF002010BD0000002C0140000400402B
:100870000008004070B50246012901D1002416E0AD
:10088000042901D1012412E0102901D102240EE033
:10089000402901D103240AE0B1F5807F01D104246D
:1008A00005E0B1F5806F01D1052400E00624234660
:1008B000064CE55C02F1180428190468044DEE5C4E
:1008C0000425B540AC43046070BD00005D1800080D
:1008D0006418000870B50246012901D1002416E011
:1008E000042901D1012412E0102901D102240EE0D3
:1008F000402901D103240AE0B1F5807F01D104240D
:1009000005E0B1F5806F01D1052400E006242346FF
:10091000064CE55C02F1180428190468044DEE5CED
:100920000825B5402C43046070BD00005D18000828
:10093000641800082DE9F04106460C4615460127CB
:10094000012C08D0102C0CD0B4F5807F0FD0B4F55A
:10095000805F18D111E02946304600F0C3FA0746FF
:1009600012E02946304600F0F9FA07460CE0294625
:10097000304600F035FB074606E02946304600F0D9
:100980006BFB074600E000BF00BF3846BDE8F081C2
:1009900081637047826844F207039A430A43826086
:1009A0007047426822F070020A434260704708B5FF
:1009B0004FF0E0210969009100BF411C01B1401CCA
:1009C00006E04FF0E021096901F4803101B1401ED9
:1009D0000028F6D108BD00002DE9F0414948006823
:1009E00049490968884233D248480068FF2824DC16
:1009F0000020FF2190FBF1F0C4B244480068C0EB36
:100A0000C000000190FBF1F0C5B240480068C0EBA7
:100A1000002090FBF1F0C6B23A480088103083B253
:100A200022462946304600F07BFE00F043FB374863
:100A30000068401D3549086062E032480068401C8B
:100A400030490860002031490860FFF7C5FF57E0D2
:100A50002C4800682C490968884214D12B4800684A
:100A6000FF2805DC29480068401C2849086047E049
:100A7000FF202649086023480068401C214908607F
:100A8000FFF7AAFF3CE01F4801681F480068401CB0
:100A9000814235D11D48006800282ADB00241CE073
:100AA0000020FF2190FBF1F0C5B218480068C0EBB0
:100AB000C000000190FBF1F0C6B214480068C0EB22
:100AC000002090FBF1F0C7B204F1100083B22A4677
:100AD0003146384600F024FE641C0B48006884420E
:100AE000DED300F0E7FA09480068401F07490860B4
:100AF00006E000200349086004490860FFF76CFF26
:100B0000BDE8F081080000200C0000200400002057
:100B100010B50B48007830B1012807D0022808D062
:100B200003280AD108E0FFF757FF07E000F0D8FAE2
:100B300004E0FFF71BFB01E000E000BF00BF10BDB9
:100B40001000002010B500BF0948006840F0010007
:100B50000749086000BF00BF0846C06840F00100B8
:100B6000C86000BF00F0B4FC192000F05CFB10BDB1
:100B70000008004000B58DB000200B900C900A904A
:100B8000142105A8FFF7D5FA14216846FFF7D1FA1A
:100B90004FF40070FFF7CEFC0420FFF7CBFC40F2CF
:100BA000077000900020019069463548FFF760FD0E
:100BB000002201213348FFF7FBFC002201213148CC
:100BC000FFF7D4FC202201212E48FFF721FD00224F
:100BD00001212C48FFF72CFD802201212948FFF735
:100BE000F7FC4FF4807201212648FFF731FD4FF4E6
:100BF000006201212348FFF7FBFC00200B904FF41B
:100C000080700C900BA92048FFF7EEFB00200A90A3
:100C10000AA91D48FFF7C4FB4FF4602005904FF46C
:100C2000001006900020079002200890C001099053
:100C300005A91548FFF7F6FB4FF000721114124892
:100C4000FFF724FC00224FF000710F48FFF73AFC39
:100C50000E4A40F205210C48FFF718FC00220B4910
:100C60000948FFF72FFC0A4A40F20A210648FFF71D
:100C70000DFC002206490448FFF724FC0DB000BD1E
:100C80000008014000000240002401400100300241
:100C90000200600238B50120144949690143134A32
:100CA0005161114649690140009100BF00BF00F049
:100CB000A1FC05460022114600F0F3F80446214647
:100CC0000B2000F09FFC0B2000F086FC00F092FC53
:100CD00005460022114600F0E4F8044621460D20A6
:100CE00000F090FC0D2000F077FC38BD00100240B1
:100CF00000B585B014216846FFF71BFA2020FFF7E6
:100D000019FC0420FFF716FC0820FFF713FC054828
:100D100000900420019069460348FFF7A9FC05B044
:100D200000BD000070007004000C014000B593B0DD
:100D300014210EA8FFF7FDF9202106A8FFF7F9F905
:100D4000142101A8FFF7F5F90220FFF7E5FB1022B7
:100D500003213348FFF72CFC002203213048FFF722
:100D600005FC002203212E48FFF752FC002203213C
:100D70002B48FFF75DFC802203212948FFF728FC60
:100D80004FF4807203212648FFF762FC4FF4806223
:100D900003212348FFF72CFC0020ADF838000F900A
:100DA00059201090002011900EA91E48FFF720FD39
:100DB0001C48FFF713FD00211A48FFF7EBFD4FF425
:100DC00080511848FFF786FD6020069000200790AC
:100DD000089009900A9006AA4FF480511148FFF735
:100DE000A9FD4FF480510F48FFF744FD00210D4845
:100DF000FFF7D7FD0B48FFF7F6FC0820FFF79AFB3B
:100E000040F202200190092002900220039000206D
:100E1000049001A90448FFF72BFC13B000BD0000AB
:100E20000000024000040040000C014030B585B0D5
:100E300014216846FFF77DF90420FFF76DFB00F0F1
:100E4000D9FB05460022114600F02BF80446214646
:100E50001E2000F0D7FB1E2000F0BEFB6320ADF883
:100E600000000020019040F26230029000200390C8
:100E700069460948FFF7BCFC0748FFF7AFFC0021B3
:100E80000548FFF787FD00210348FFF78AFD024868
:100E9000FFF7A9FC05B030BD0008004000BFFEE729
:100EA0007047F0B503460C4603F00701C1F1070097
:100EB000042801D9042001E0C1F107000646081DFD
:100EC000072801D2002000E0C81E05460120B040DE
:100ED000401E2040A8400127AF407F1E17403843E6
:100EE000F0BD000070B50246106A20F001001062EB
:100EF000136A5568946924F0030424F070000E68A6
:100F000040EA060423F002000E6940EA060323F0DB
:100F100001004E6840EA06030F48824213D123F0D5
:100F200008004E6940EA860323F004008E6840EA18
:100F3000860325F480708E6940EA060525F400706A
:100F4000CE6940EA460555609461C868506300BFA9
:100F50001362002070BD0000002C01402DE9F0411B
:100F600004460D46206A20F010002062266AD4F85C
:100F70000480A76927F4407727F4E040296840EA15
:100F8000012726F02000296940EA011626F010000A
:100F9000696840EA01161148844213D126F08000A6
:100FA000696940EA811626F04000A96840EA811686
:100FB00028F48060A96940EA810828F40060E969A2
:100FC00040EAC108C4F80480A7612046E968FFF739
:100FD000DFFC26620020BDE8F0810000002C01400B
:100FE00070B50246106A20F480701062136A55686A
:100FF000D46924F0030424F070000E6840EA06046B
:1010000023F400700E6940EA062323F480704E68D2
:1010100040EA06230F48824213D123F400604E6950
:1010200040EA862323F480608E6840EA862325F414
:1010300080508E6940EA061525F40050CE6940EADA
:1010400046155560D461C868D06300BF13620020A4
:1010500070BD0000002C014070B50246106A20F4FB
:1010600080501062146A5568D36923F4407323F4E6
:10107000E0400E6840EA062324F400500E6940EA7E
:10108000063424F480504E6840EA06340748824211
:1010900004D125F480408E6940EA86155560D361FD
:1010A000C868106400BF1462002070BD002C0140AD
:1010B0007047000010B540F26F2203210648FFF789
:1010C00065FA03210448FFF743FA4FF480510348BF
:1010D000FFF780FB10BD000000000240000400404C
:1010E0002DE9F0414C4800684C490968884236D2E5
:1010F0004B480068FF2827DC0020FF2190FBF1F01F
:10110000C4B247480068C0EBC000000190FBF1F09A
:10111000C5B243480068C0EB002090FBF1F0C6B2B6
:101120003E4800883C490988401A401E83B2224646
:101130002946304600F0F4FAFFF7BCFF3848006853
:10114000401D3749086064E033480068401C32495C
:101150000860002032490860FFF7C2FF59E02E48BE
:1011600000682E490968884214D12D480068FF287C
:1011700005DC2B480068401C2949086049E0FF2035
:101180002749086024480068401C23490860FFF78D
:10119000A7FF3EE02048016820480068401C8142CB
:1011A00037D11F48006800282CDB00241EE00020F7
:1011B000FF2190FBF1F0C5B219480068C0EBC000F8
:1011C000000190FBF1F0C6B215480068C0EB0020AA
:1011D00090FBF1F0C7B211480088001B401E83B29B
:1011E0002A463146384600F09BFA641C0B480068DA
:1011F0008442DCD3FFF75EFF09480068401F0849BE
:10120000086006E000200449086005490860FFF70F
:1012100067FFBDE8F0810000080000200C000020FE
:101220000400002070472DE9F0410546082416E02F
:101230000020FF2190FBF1F0C6B2002090FBF1F0FE
:10124000C7B2C5EB052090FBF1F000F0FF08234684
:1012500032463946404600F063FA601CC4B20F2C97
:10126000E6DDFFF727FFBDE8F081000010B502487A
:101270000078FFF7D8FF10BD0100002010B502482C
:101280000078FFF7D0FF10BD00000020704700007D
:1012900010B502203C49096821F0070101433A4A90
:1012A000116000BF00BF1046006800F00700022870
:1012B00001D0FFF772F800BF3448006840F4803076
:1012C0003249086000BF00BF00BF30480068C0F36B
:1012D00040400028F8D04FF480304FF4E0112B4A02
:1012E000526822F47C1200F440330B431A43274B1C
:1012F0005A6000BF00BF1846006840F08070194671
:10130000086000BF00BF00BF20480068C0F3406015
:101310000028F8D000201D49496821F0F001014360
:101320001A4A516000BF10151146496821F4E06166
:101330000143516000BF00201146496821F460510B
:101340000143516000BF02201146496821F00301AA
:101350000143516000BF00BF00BF0C48406800F06F
:101360000C000828F8D10A48FFF71FFA0848FFF7D1
:101370002BFA4FF400400549496821F440410143EC
:10138000024A516000BF10BD002002400010024020
:1013900000A24A041148006840F001000F490860AB
:1013A000084640680E4908400C49486008460068F5
:1013B0000C490840094908600846006820F480206C
:1013C00008600846406820F4FE0048604FF41F00A3
:1013D0008860C8030449086070470000001002409C
:1013E0000000FFF8FFFFF6FE08ED00E010B500BFBB
:1013F0006FF001000249086100BFFFF789FB10BDD3
:101400000008004010B5002412E004F1100083B27F
:1014100000221146104600F083F90B480088001B9B
:10142000401E83B200221146104600F079F9641C78
:10143000054800688442E8D3FFF73CFE00200349DA
:1014400008600349086010BD0C000020080000205F
:101450000400002010B507480078022809D00020B9
:1014600005490860FFF7CEFF022002490870FFF728
:101470004FFB10BD100000200800002010B50748E9
:10148000007848B1002006490860FFF7BBFF002044
:1014900002490870FFF73CFB10BD0000100000205F
:1014A0000800002010B507480078012809D0002066
:1014B00005490860FFF7A6FF012002490870FFF701
:1014C00027FB10BD100000200800002000BFFEE731
:1014D00070B500BF3C48006820F001003A49086040
:1014E00000BF3A4803214A1E394B9A5C825822F0C9
:1014F00001034A1E364CA25C835000BF40F26F22AB
:10150000FFF744F831480321324A2F4B403310246F
:10151000102C09D14D1E2E4E755D0544EA604D1EFE
:10152000755D0544AB6008E04D1E294E755D0544B0
:10153000AA604D1E755D0544EB6000BF2348032182
:1015400020224B1E224CE35CC35823F0200313439C
:101550004C1E1F4D2C5D035100BF00BF1A48C068D0
:1015600040F480501849C86000BF03211748FEF7B7
:10157000EFFF164803214A1E2B469A5C825842F020
:1015800002034A1E2C46A25C835000BF00BF0E48D7
:10159000006840F001000C49086000BF89140A4847
:1015A000FFF718F93220FFF702FA002407E023467C
:1015B00000221146104600F0B3F8601C84B2182CCB
:1015C000F5DBFFF777FD70BD00040040000002402E
:1015D0002C18000818000020002809DB00F01F026A
:1015E000012191404209920002F1E022C2F800116B
:1015F0007047000002480068C0F3022070470000F6
:101600000CED00E010B5002804DB0A07130E054AB4
:10161000135406E00A07140E034A00F00F031B1FC1
:10162000D45410BD00E400E018ED00E002E008C86A
:10163000121F08C1002AFAD170477047002001E04C
:1016400001C1121F002AFBD1704700000120FEF7E4
:1016500071FF4FF08050FEF75FFF032002462A4BD8
:1016600019684FF6FF031940284B0B4343EA022148
:10167000254B196000BF00BF2548406820F0E0609E
:10168000234948600846406840F00070486000BF49
:10169000FFF7FEFDFFF72CFBFFF7FCFAFFF746FB19
:1016A000FFF7C4FBFFF766FAFFF712FFFFF74AFAEE
:1016B00029E018491848FFF76BF844001749164805
:1016C000FFF766F80444012C04D0022C05D0032C4B
:1016D00009D105E0FFF7D2FE08E0FFF7E3FE05E0E1
:1016E000FFF7B8FE02E0FFF78DFE00BF00BF0A481B
:1016F0000830006800F4804010B1FFF7BFFD01E042
:10170000FFF7B4FD00BFD4E70CED00E00000FA05E0
:101710000000014010001004000C014020002004D3
:1017200078B5002400947AE0BDF80040C4F10705C4
:101730000124AC4004400CB1012400E00024012C41
:101740000DD13D2503EB43042F2606EBC404BDF861
:10175000006034440834344E26F814500CE01B2545
:1017600003EB43042F2606EBC404BDF800603444A9
:1017700008342D4E26F81450BDF80040C4F107057A
:101780000124AC400C400CB1012400E00024012CE9
:101790000CD13D2503EB43042F2606EBC404BDF812
:1017A00000603444204E26F814500BE01B2503EB58
:1017B00043042F2606EBC404BDF8006034441A4EDF
:1017C00026F81450BDF80040C4F107050124AC40D0
:1017D00014400CB1012400E00024012C0DD13D2562
:1017E00003EB43042F2606EBC404BDF80060344429
:1017F00010340D4E26F814500CE01B2503EB430467
:101800002F2606EBC404BDF8006034441034064EA5
:1018100026F81450BDF80040641CA4B20094BDF832
:101820000040082C80DB78BD18000020081C3044E4
:10183000586C800000000004040400000800000050
:10184000080000080000000800020406080A0C0056
:10185000010203040506081C3044586C8000000097
:101860000004040400000800000008000008000054
:10187000000800020406080A0C0001020304050621
:10188000081C3044586C8000000000040404000070
:10189000080000000800000800000008000204061C
:1018A000080A0C000102030405060000CC18000819
:1018B00000000020180000002C160008E4180008A2
:1018C00018000020E00800003C160008FF3F000060
:1018D00000000000000000000800000003000000FD
:0418E0000024F400EC
:04000005080000ED02
:00000001FF
